{
  "_format": "hh-sol-artifact-1",
  "contractName": "DefiShieldQuery",
  "sourceName": "contracts/DefiShieldQuery.sol",
  "abi": [
    {
      "inputs": [
        {
          "internalType": "address",
          "name": "_paymentToken",
          "type": "address"
        }
      ],
      "stateMutability": "nonpayable",
      "type": "constructor"
    },
    {
      "anonymous": false,
      "inputs": [
        {
          "indexed": false,
          "internalType": "uint256",
          "name": "newPrice",
          "type": "uint256"
        }
      ],
      "name": "PriceUpdated",
      "type": "event"
    },
    {
      "anonymous": false,
      "inputs": [
        {
          "indexed": true,
          "internalType": "address",
          "name": "user",
          "type": "address"
        },
        {
          "indexed": false,
          "internalType": "uint256",
          "name": "amount",
          "type": "uint256"
        },
        {
          "indexed": false,
          "internalType": "uint256",
          "name": "until",
          "type": "uint256"
        }
      ],
      "name": "QueryPaid",
      "type": "event"
    },
    {
      "anonymous": false,
      "inputs": [
        {
          "indexed": true,
          "internalType": "address",
          "name": "owner",
          "type": "address"
        },
        {
          "indexed": false,
          "internalType": "uint256",
          "name": "amount",
          "type": "uint256"
        }
      ],
      "name": "Withdrawn",
      "type": "event"
    },
    {
      "inputs": [],
      "name": "getQueryPrice",
      "outputs": [
        {
          "internalType": "uint256",
          "name": "",
          "type": "uint256"
        }
      ],
      "stateMutability": "view",
      "type": "function"
    },
    {
      "inputs": [
        {
          "internalType": "address",
          "name": "user",
          "type": "address"
        }
      ],
      "name": "getRemainingTime",
      "outputs": [
        {
          "internalType": "uint256",
          "name": "",
          "type": "uint256"
        }
      ],
      "stateMutability": "view",
      "type": "function"
    },
    {
      "inputs": [
        {
          "internalType": "address",
          "name": "user",
          "type": "address"
        }
      ],
      "name": "hasActiveAccess",
      "outputs": [
        {
          "internalType": "bool",
          "name": "",
          "type": "bool"
        }
      ],
      "stateMutability": "view",
      "type": "function"
    },
    {
      "inputs": [
        {
          "internalType": "address",
          "name": "",
          "type": "address"
        }
      ],
      "name": "hasPaid",
      "outputs": [
        {
          "internalType": "bool",
          "name": "",
          "type": "bool"
        }
      ],
      "stateMutability": "view",
      "type": "function"
    },
    {
      "inputs": [],
      "name": "owner",
      "outputs": [
        {
          "internalType": "address",
          "name": "",
          "type": "address"
        }
      ],
      "stateMutability": "view",
      "type": "function"
    },
    {
      "inputs": [
        {
          "internalType": "address",
          "name": "",
          "type": "address"
        }
      ],
      "name": "paidUntil",
      "outputs": [
        {
          "internalType": "uint256",
          "name": "",
          "type": "uint256"
        }
      ],
      "stateMutability": "view",
      "type": "function"
    },
    {
      "inputs": [
        {
          "internalType": "uint256",
          "name": "amount",
          "type": "uint256"
        }
      ],
      "name": "payForQuery",
      "outputs": [],
      "stateMutability": "payable",
      "type": "function"
    },
    {
      "inputs": [],
      "name": "paymentToken",
      "outputs": [
        {
          "internalType": "address",
          "name": "",
          "type": "address"
        }
      ],
      "stateMutability": "view",
      "type": "function"
    },
    {
      "inputs": [],
      "name": "queryPrice",
      "outputs": [
        {
          "internalType": "uint256",
          "name": "",
          "type": "uint256"
        }
      ],
      "stateMutability": "view",
      "type": "function"
    },
    {
      "inputs": [
        {
          "internalType": "address",
          "name": "newToken",
          "type": "address"
        }
      ],
      "name": "setPaymentToken",
      "outputs": [],
      "stateMutability": "nonpayable",
      "type": "function"
    },
    {
      "inputs": [
        {
          "internalType": "uint256",
          "name": "newPrice",
          "type": "uint256"
        }
      ],
      "name": "setQueryPrice",
      "outputs": [],
      "stateMutability": "nonpayable",
      "type": "function"
    },
    {
      "inputs": [],
      "name": "withdraw",
      "outputs": [],
      "stateMutability": "nonpayable",
      "type": "function"
    }
  ],
  "bytecode": "0x6080604052670de0b6b3a764000060015534801561001c57600080fd5b5060405161094b38038061094b83398101604081905261003b9161006e565b60008054336001600160a01b031991821617909155600280549091166001600160a01b039290921691909117905561009e565b60006020828403121561008057600080fd5b81516001600160a01b038116811461009757600080fd5b9392505050565b61089e806100ad6000396000f3fe6080604052600436106100a75760003560e01c806392cff5fe1161006457806392cff5fe14610183578063b0667cf8146101b0578063b9592a56146101c6578063c5948043146101e6578063ef4aba5714610216578063fbf47a9a1461022957600080fd5b80630e85117a146100ac5780633013ce29146100df5780633ccfd60b146101175780636a326ab11461012e5780637dbdc2eb1461014e5780638da5cb5b14610163575b600080fd5b3480156100b857600080fd5b506100cc6100c7366004610785565b610259565b6040519081526020015b60405180910390f35b3480156100eb57600080fd5b506002546100ff906001600160a01b031681565b6040516001600160a01b0390911681526020016100d6565b34801561012357600080fd5b5061012c6102d0565b005b34801561013a57600080fd5b5061012c610149366004610785565b6104c3565b34801561015a57600080fd5b506001546100cc565b34801561016f57600080fd5b506000546100ff906001600160a01b031681565b34801561018f57600080fd5b506100cc61019e366004610785565b60046020526000908152604090205481565b3480156101bc57600080fd5b506100cc60015481565b3480156101d257600080fd5b5061012c6101e13660046107b5565b61050f565b3480156101f257600080fd5b50610206610201366004610785565b610574565b60405190151581526020016100d6565b61012c6102243660046107b5565b6105b5565b34801561023557600080fd5b50610206610244366004610785565b60036020526000908152604090205460ff1681565b6001600160a01b03811660009081526003602052604081205460ff16158061029957506001600160a01b0382166000908152600460205260409020544210155b156102a657506000919050565b6001600160a01b0382166000908152600460205260409020546102ca9042906107e4565b92915050565b6000546001600160a01b031633146103035760405162461bcd60e51b81526004016102fa906107f7565b60405180910390fd5b6002546000906001600160a01b031661035857506000805460405147926001600160a01b039092169183156108fc02918491818181858888f19350505050158015610352573d6000803e3d6000fd5b5061047d565b6002546040516370a0823160e01b81523060048201526001600160a01b03909116906370a0823190602401602060405180830381865afa1580156103a0573d6000803e3d6000fd5b505050506040513d601f19601f820116820180604052508101906103c4919061081a565b60025460005460405163a9059cbb60e01b81526001600160a01b03918216600482015260248101849052929350169063a9059cbb906044016020604051808303816000875af115801561041b573d6000803e3d6000fd5b505050506040513d601f19601f8201168201806040525081019061043f9190610833565b61047d5760405162461bcd60e51b815260206004820152600f60248201526e151c985b9cd9995c8819985a5b1959608a1b60448201526064016102fa565b6000546040518281526001600160a01b03909116907f7084f5476618d8e60b11ef0d7d3f06914655adb8793e28ff7f018d4c76d505d5906020015b60405180910390a250565b6000546001600160a01b031633146104ed5760405162461bcd60e51b81526004016102fa906107f7565b600280546001600160a01b0319166001600160a01b0392909216919091179055565b6000546001600160a01b031633146105395760405162461bcd60e51b81526004016102fa906107f7565b60018190556040518181527f66cbca4f3c64fecf1dcb9ce094abcf7f68c3450a1d4e3a8e917dd621edb4ebe09060200160405180910390a150565b6001600160a01b03811660009081526003602052604081205460ff1680156102ca5750506001600160a01b0316600090815260046020526040902054421090565b6001548110156105fe5760405162461bcd60e51b8152602060048201526014602482015273125b9cdd59999a58da595b9d081c185e5b595b9d60621b60448201526064016102fa565b6002546001600160a01b0316156106d0576002546040516323b872dd60e01b8152336004820152306024820152604481018390526001600160a01b039091169081906323b872dd906064016020604051808303816000875af1158015610668573d6000803e3d6000fd5b505050506040513d601f19601f8201168201806040525081019061068c9190610833565b6106ca5760405162461bcd60e51b815260206004820152600f60248201526e151c985b9cd9995c8819985a5b1959608a1b60448201526064016102fa565b50610713565b803410156107135760405162461bcd60e51b815260206004820152601060248201526f24b739bab33334b1b4b2b73a1021272160811b60448201526064016102fa565b336000908152600360205260409020805460ff1916600117905561073a4262278d00610855565b33600081815260046020526040908190208390555190917fce854124b00d2026a391504e2692061058f319ce2c0795a6c96cd3d49991e679916104b891858252602082015260400190565b60006020828403121561079757600080fd5b81356001600160a01b03811681146107ae57600080fd5b9392505050565b6000602082840312156107c757600080fd5b5035919050565b634e487b7160e01b600052601160045260246000fd5b818103818111156102ca576102ca6107ce565b6020808252600990820152682737ba1037bbb732b960b91b604082015260600190565b60006020828403121561082c57600080fd5b5051919050565b60006020828403121561084557600080fd5b815180151581146107ae57600080fd5b808201808211156102ca576102ca6107ce56fea264697066735822122018f4d7b7a346c020ca2ab1781b6b8e006d0349457d17f0dbed90b6760986501064736f6c63430008140033",
  "linkReferences": {},
  "deployedLinkReferences": {}
}